:020000040800F2
:100000009840002089010008E5010008E50100088A
:10001000E5010008E5010008E50100080000000016
:10002000000000000000000000000000E5010008E2
:10003000E501000800000000E5010008E5010008F6
:10004000E5010008E5010008E5010008E5010008F8
:10005000E5010008E5010008E5010008E5010008E8
:10006000E5010008E5010008E5010008E5010008D8
:10007000E5010008E5010008E5010008E5010008C8
:10008000E5010008E5010008E5010008E5010008B8
:10009000E5010008E5010008E5010008E5010008A8
:1000A000E5010008E5010008E5010008E501000898
:1000B00049060008E5010008E5010008E50100081F
:1000C000E5010008E5010008E5010008E501000878
:1000D000E5010008E5010008E5010008E501000868
:1000E000E5010008E5010008E5010008E501000858
:1000F000E5010008E5010008E5010008E501000848
:10010000E5010008E5010008E5010008E501000837
:10011000E5010008E5010008E5010008E501000827
:10012000E5010008E5010008E5010008E501000817
:10013000E5010008E5010008E5010008E501000807
:10014000E5010008E5010008E5010008E5010008F7
:10015000E1050008E5010008E5010008E5010008E7
:10016000E5010008E5010008E5010008E5010008D7
:10017000E5010008E5010008E5010008E5010008C7
:10018000E5010008E501000880B582B000AF104B22
:100190007B60104B3B6007E03B681A1D3A607A6851
:1001A000111D796012681A603B680B4A9342F3D3C1
:1001B0000A480B494FF000028842B8BF40F8042BB0
:1001C000FADB00F06FFA00BF0837BD4680BD00BF04
:1001D000B00F0008000000200000002000000020F8
:1001E0009438002080B400AFFEE700BF80B582B035
:1001F00000AF0023FB8037E000237B712EE0FA88FC
:100200001346DB001344DB0019467A7913465B0082
:1002100013440B441C4AFF21D154FA881346DB00D7
:100220001344DB0019467A7913465B0013440B44F0
:100230000133154A0021D154FA881346DB001344D8
:10024000DB0019467A7913465B0013440B440233F2
:100250000D4A0021D1547B7901337B717B79172BB7
:10026000CDD9FB880133FB80FB88C72BC4D900F0B4
:10027000C3F800F0E1F800F047F900F06FF900BFB3
:100280000837BD4680BD00BF5400002090B484B044
:1002900000AF0446084611461A462346FB71034642
:1002A000BB800B46BB711346FB70BA881346DB005C
:1002B0001344DB001A464F4B1344BB600023FB730F
:1002C0008FE0FA7B13465B0013440133BA68D11800
:1002D000FA7B13465B0013440133BA6813441B785E
:1002E00058B2FA7B13465B0013440133BA681344D7
:1002F0001B781A46FB791A41FC78FB7B44FA03F31E
:10030000534003F00103002B05D0FB79012202FAD0
:1003100003F35BB200E0002343405BB2DBB20B703F
:10032000FA7B13465B0013441933BA68D118FA7B81
:1003300013465B0013441933BA6813441B7858B250
:10034000FA7B13465B0013441933BA6813441B78D5
:100350001A46FB791A41BC79FB7B44FA03F35340FC
:1003600003F00103002B05D0FB79012202FA03F30D
:100370005BB200E0002343405BB2DBB20B70FA7B60
:1003800013465B0013443133BA68D118FA7B134625
:100390005B0013443133BA6813441B7858B2FA7BBC
:1003A00013465B0013443133BA6813441B781A4672
:1003B000FB791A413C7EFB7B44FA03F3534003F084
:1003C0000103002B05D0FB79012202FA03F35BB293
:1003D00000E0002343405BB2DBB20B70FB7B0133D8
:1003E000FB73FB7B072B7FF66CAF00BF1037BD465E
:1003F00090BC70475400002080B500AF012101205F
:1004000000F076F90A4B01221A71094B00229A7109
:10041000074B0222DA71064BFF221A600449054895
:1004200000F0C0F9034BFF225A8300BF80BD00BF1C
:10043000000000200000024080B500AF00212D48E0
:1004400000F00EFC2B4800F0E3FA01214FF480008D
:1004500000F04EF9284B4FF040621A60264B4022C4
:10046000DA60254B4FF461521A61234B00225A6225
:10047000214B4FF400329A621F4B204A5A601E4BA8
:1004800000229A631C4B00225A611B4B0022DA6146
:100490001B4A194B9A60184B00225A63164B4FF4B3
:1004A00080629A61144B00221A62134B0022DA62B6
:1004B000114B01221A6310490E4800F07BFB114BCF
:1004C00044221A700F4B00225A700E4B00229A7071
:1004D0000C4B0122DA700B4800F018FC01221021AD
:1004E000044800F0D9FB0121024800F0B9FB00BF2D
:1004F00080BD00BF88640240080000201400024054
:10050000540000205000002080B500AF01210120E0
:1005100000F02AF90F4B43225A600E4B00221A803A
:100520000C4B00221A810B4B00225A8009490A48C1
:1005300000F04CFC0121084800F0B2FC01224FF40D
:100540008071054800F010FD0121034800F0C8FC4F
:1005500000BF80BD440000200000014080B500AF16
:100560000121012000F0E2F81B4B00221A811A4BF6
:1005700040F61F521A80184BF9225A60164B00227F
:100580005A8015494FF0804000F020FC01214FF0C7
:10059000804000F085FC114B1C221A700F4B012289
:1005A0005A700E4B01229A700C4B0122DA700B48E4
:1005B00000F0ACFB4FF080434FF6FE721A8201222E
:1005C00001214FF0804000F0ABFC01214FF0804052
:1005D00000F086FC00BF80BD4400002050000020D9
:1005E00080B400AF144B5B6803F40063002B1ED093
:1005F000124B1B6803F01003002B18D00F4A0F4B4F
:100600001B6823F0010313600D4A0D4B1B889BB23E
:1006100023F001039BB21380084B0A4ADA60074BB0
:100620004FF461525A60044B4FF40062DA6000BF2D
:10063000BD4680BC704700BF006402408864024031
:10064000000001405400002080B400AF4FF0804310
:100650001B8A9BB203F00103002B1AD04FF080439A
:100660009B899BB203F00103002B12D04FF0804313
:100670004FF6FE721A82094A084B1B6843F00103C9
:100680001360074A064B1B889BB243F001039BB2E1
:10069000138000BFBD4680BC704700BF8864024025
:1006A0000000014080B584B002AF00F009F90121DB
:1006B000012000F01DF802233B6001233B71002361
:1006C000BB7103237B710023FB713B46194607482E
:1006D00000F068F8FFF78AFDFA2300930023002258
:1006E00001210020FFF7D2FDF6E700BF0000024025
:1006F00080B483B000AF78600B46FB70FB78002BB2
:1007000006D00949084B1A6B7B6813430B6306E05C
:100710000549054B1A6B7B68DB4313400B6300BF35
:100720000C37BD4680BC70470038024080B483B0AF
:1007300000AF78600B46FB70FB78002B06D00949B0
:10074000084B1A6C7B6813430B6406E00549054BA4
:100750001A6C7B68DB4313400B6400BF0C37BD464B
:1007600080BC70470038024080B483B000AF78602E
:100770000B46FB70FB78002B06D00949084B5A6CDE
:100780007B6813434B6406E00549054B5A6C7B6854
:10079000DB4313404B6400BF0C37BD4680BC704741
:1007A0000038024080B487B000AF78603960002321
:1007B0007B6100233B610023FB6000237B6176E0CB
:1007C00001227B6902FA03F33B613B681A683B69CB
:1007D0001340FB60FA683B699A4265D17B681A68EE
:1007E0007B695B00032101FA03F3DB431A407B685A
:1007F0001A607B681A683B681B7919467B695B0045
:1008000001FA03F31A437B681A603B681B79012BDA
:1008100003D03B681B79022B2ED17B689A687B69D9
:100820005B00032101FA03F3DB431A407B689A6003
:100830007B689A683B685B7919467B695B0001FAC3
:1008400003F31A437B689A607B685A687B699BB2A2
:10085000194601238B40DB431A407B685A607B6852
:100860005B683A68927911467A6992B201FA02F2AB
:1008700092B21A437B685A607B68DA687B699BB2E4
:100880005B00032101FA03F3DB431A407B68DA6063
:100890007B68DA683B68DB7919467B695B0001FAA3
:1008A00003F31A437B68DA607B6901337B617B6900
:1008B0000F2B85D900BF1C37BD4680BC704700BFD9
:1008C00080B500AF124A124B1B6843F0010313605E
:1008D0000F4B00229A600E4A0D4B1B6823F0847365
:1008E00023F4803313600A4B0A4A5A60084A084BC3
:1008F0001B6823F480231360054B0022DA6000F0AC
:100900000DF8054B4FF000629A6000BF80BD00BF3C
:10091000003802401030002400ED00E080B483B0C5
:1009200000AF00237B6000233B60354A344B1B68DB
:1009300043F480331360324B1B6803F400333B6095
:100940007B6801337B603B68002B03D17B68B3F588
:10095000A06FF0D12A4B1B6803F40033002B02D0A8
:1009600001233B6001E000233B603B68012B42D147
:10097000234A234B1B6C43F080531364214A214BC1
:100980001B6843F4804313601D4A1D4B9B689360B2
:100990001B4A1B4B9B6843F400439360184A184B57
:1009A0009B6843F4A0539360154B174A5A60144A4E
:1009B000134B1B6843F08073136000BF104B1B6820
:1009C00003F00073002BF9D0104B40F205621A605F
:1009D0000B4A0B4B9B6823F003039360084A084BB8
:1009E0009B6843F00203936000BF054B9B6803F0D4
:1009F0000C03082BF9D100BF0C37BD4680BC7047F3
:100A0000003802400070004019544007003C02408A
:100A100080B483B000AF78607B681B6823F001026C
:100A20007B681A607B6800221A607B6800225A602B
:100A30007B6800229A607B680022DA607B68002273
:100A40001A617B6821225A617B68454A934203D12F
:100A5000444B3D229A607EE07B68434A934204D136
:100A6000404B4FF474629A6075E07B683F4A934252
:100A700004D13C4B4FF474129A606CE07B683C4AA2
:100A8000934204D1374B4FF074629A6063E07B6805
:100A9000384A934203D1334B374ADA605BE07B68D4
:100AA000364A934203D12F4B354ADA6053E07B68D4
:100AB000344A934203D12B4B334ADA604BE07B68D4
:100AC000324A934204D1274B4FF03D52DA6042E064
:100AD0007B682F4A934203D12E4B3D229A603AE025
:100AE0007B682D4A934204D12A4B4FF474629A607A
:100AF00031E07B68294A934204D1264B4FF47412AB
:100B00009A6028E07B68264A934204D1214B4FF03B
:100B100074629A601FE07B68224A934203D11D4BA6
:100B2000154ADA6017E07B681F4A934203D1194BDC
:100B3000134ADA600FE07B681C4A934203D1154BDD
:100B4000114ADA6007E07B68194A934203D1114BDE
:100B50004FF03D52DA6000BF0C37BD4680BC704795
:100B60001060024000600240286002404060024085
:100B700058600240706002403D00002088600240E2
:100B8000400F0020A060024000003D20B8600240FD
:100B90001064024000640240286402404064024045
:100BA000586402407064024088640240A0640240BD
:100BB000B864024080B485B000AF7860396000232B
:100BC000FB607B681B68FB60FA68244B1340FB608A
:100BD0003B681A683B68DB681A433B685B691A43E9
:100BE0003B689B691A433B68DB691A433B681B6A95
:100BF0001A433B685B6A1A433B689B6A1A433B682B
:100C00005B6B1A433B689B6B1343FA681343FB60AF
:100C10007B68FA681A607B685B69FB60FB6823F09D
:100C20000703FB603B68DA6A3B681B6B1343FA6897
:100C30001343FB607B68FA685A613B681A697B68FA
:100C40005A603B685A687B689A603B689A687B6820
:100C5000DA6000BF1437BD4680BC70473F801CF08F
:100C600080B483B000AF78600B46FB70FB78002B3C
:100C700006D07B681B6843F001027B681A6005E0C0
:100C80007B681B6823F001027B681A6000BF0C3789
:100C9000BD4680BC704700BF80B485B000AFF8602F
:100CA000B9601346FB71BB6803F08003002B0FD0C3
:100CB000FB79002B06D0FB685B6943F08002FB6880
:100CC0005A6105E0FB685B6923F08002FB685A61AA
:100CD000BB68802B14D0FB79002B08D0FB681A6806
:100CE000BB6803F01E031A43FB681A6008E0FB6848
:100CF0001A68BB6803F01E03DB431A40FB681A60E6
:100D000000BF1437BD4680BC704700BF80B485B0BB
:100D100000AF78600023FB730023BB730F237B734A
:100D20007B68DB78002B38D0264BDB68DB4303F491
:100D3000E0631B0AFB73FB7BC3F10403BB737A7B89
:100D4000FB7B42FA03F37B737B685B781A46BB7BC1
:100D500002FA03F3FB737B689A787B7B1340DAB269
:100D6000FB7B1343FB73FB7B1B01FB73164A7B6806
:100D70001B781344FA7B83F80023134A7B681B78A3
:100D80005B09DBB218467B681B7803F01F03012167
:100D900001FA03F342F820300FE00B497B681B781F
:100DA0005B09DBB218467B681B7803F01F03012246
:100DB0009A4000F1200341F8232000BF1437BD46BC
:100DC00080BC704700ED00E000E100E080B485B039
:100DD00000AF786039600023FB817B681B88FB8152
:100DE0007B68284A934213D07B68274A93420FD0EE
:100DF0007B68B3F1804F0BD07B68244A934207D0C5
:100E00007B68234A934203D07B68224A934208D1ED
:100E1000FB8923F07003FB813B685A88FB891343ED
:100E2000FB817B681C4A93420CD07B681B4A93422F
:100E300008D0FB8923F44073FB813B681A89FB8946
:100E40001343FB817B68FA891A803B685A687B6888
:100E5000DA623B681A887B681A857B68094A934284
:100E600003D07B68084A934204D13B689B7A9AB2CC
:100E70007B681A867B6801229A8200BF1437BD46C0
:100E800080BC7047000001400004014000040040A5
:100E900000080040000C004000100040001400401A
:100EA00080B483B000AF78600B46FB70FB78002BFA
:100EB00008D07B681B889BB243F080039AB27B68A2
:100EC0001A8007E07B681B889BB223F080039AB2EC
:100ED0007B681A8000BF0C37BD4680BC704700BFDE
:100EE00080B483B000AF78600B46FB70FB78002BBA
:100EF00008D07B681B889BB243F001039AB27B68E1
:100F00001A8007E07B681B889BB223F001039AB22A
:100F10007B681A8000BF0C37BD4680BC704700BF9D
:100F200080B483B000AF78600B467B8013467B7043
:100F30007B78002B08D07B689B899AB27B8813430F
:100F40009AB27B689A8109E07B689B899AB27B8818
:100F5000DB439BB213409AB27B689A8100BF0C3787
:100F6000BD4680BC704700BF80B483B000AF7860DE
:100F70000B467B8013467B707B78002B08D07B6808
:100F80009B899AB27B8813439AB27B689A8109E065
:100F90007B689B899AB27B88DB439BB213409AB2F1
:100FA0007B689A8100BF0C37BD4680BC704700BF8C
:0400000508000000EF
:00000001FF
